:1000000010C02AC029C028C027C026C025C024C0CF
:1000100023C022C021C020C01FC01EC01DC01CC0E4
:100020001BC011241FBECFE5D1E0DEBFCDBF10E065
:10003000A0E6B0E0E2E7F2E002C005900D92A4363F
:10004000B107D9F710E0A4E6B0E001C01D92AC36CC
:10005000B107E1F7A4D00BC1D3CF97B18770987FD8
:10006000892B87B9369A3699FECF24B135B1C901AB
:10007000089580E487B9379A089515B817B897B1ED
:100080009066982B97B9369A3699FECF85B1089528
:10009000FC01408121E030E0062E01C0220F0A94CD
:1000A000EAF7422B40830895FC01408121E030E0D3
:1000B000062E01C0220F0A94EAF7209524232083FC
:1000C0000895FC01408121E030E0062E01C0220F9E
:1000D0000A94EAF7422740830895FC01408121E019
:1000E00030E0062E01C0220F0A94EAF7209524235F
:1000F00020830895FC01408121E030E0062E01C0FC
:10010000220F0A94EAF7422B40830895FC014081B4
:1001100021E030E0062E01C0220F0A94EAF7422BBC
:1001200040830895FC01408121E030E0062E01C0AB
:10013000220F0A94EAF72095242320830895FC01D6
:10014000208181E090E0062E01C0880F0A94EAF732
:10015000209582230895FC01808121E030E001C0D8
:10016000220F6A95EAF780958223813009F008957D
:100170009081909592239130D1F790819095922320
:100180009130B1F3F4CFB89AC0980895BA9AC29852
:10019000D79ADF98089587B187B9379A0895B89AA2
:1001A000C098BA9AC298D79ADF9887B187B9379A18
:1001B000E0916400F09165006091610070916200CF
:1001C00040916000A1E0B0E0E770FF2767707727FB
:1001D00050E002E010E0C3E0D0E0B0936700A093ED
:1001E000660087B1887F8E2B87B9369A3699FECF05
:1001F00084B195B1909369008093680087B1887F3E
:10020000862B87B9369A3699FECF84B195B19093F3
:100210006B0080936A0020916800309169007C0136
:10022000E41AF50A2E153F0520F410936700009399
:100230006600840F951F8217930738F4D0936700E8
:10024000C0936600C298DF9AC8CF809166009091F3
:1002500067008130910511F4C29ADF9A82309105CE
:1002600011F4C29ADF98039709F0B7CFEBCFF89457
:02027000FFCFBE
:040272000A0100007D
:00000001FF
